{
  "contractName": "PayAll",
  "abi": [
    {
      "anonymous": false,
      "inputs": [
        {
          "indexed": false,
          "name": "_from",
          "type": "address"
        },
        {
          "indexed": false,
          "name": "_to",
          "type": "address"
        },
        {
          "indexed": false,
          "name": "_val",
          "type": "uint256"
        },
        {
          "indexed": false,
          "name": "_when",
          "type": "uint256"
        }
      ],
      "name": "Payment",
      "type": "event"
    },
    {
      "anonymous": false,
      "inputs": [
        {
          "indexed": false,
          "name": "_from",
          "type": "address"
        },
        {
          "indexed": false,
          "name": "_to",
          "type": "address"
        },
        {
          "indexed": false,
          "name": "_val",
          "type": "uint256"
        },
        {
          "indexed": false,
          "name": "_when",
          "type": "uint256"
        }
      ],
      "name": "RootPayment",
      "type": "event"
    },
    {
      "anonymous": false,
      "inputs": [
        {
          "indexed": false,
          "name": "_from",
          "type": "address"
        },
        {
          "indexed": false,
          "name": "_msg",
          "type": "string"
        }
      ],
      "name": "GenesisPayment",
      "type": "event"
    },
    {
      "constant": false,
      "inputs": [],
      "name": "pay",
      "outputs": [],
      "payable": true,
      "stateMutability": "payable",
      "type": "function"
    },
    {
      "constant": false,
      "inputs": [
        {
          "name": "one",
          "type": "address"
        },
        {
          "name": "two",
          "type": "address"
        }
      ],
      "name": "pay",
      "outputs": [],
      "payable": true,
      "stateMutability": "payable",
      "type": "function"
    }
  ],
  "bytecode": "0x608060405234801561001057600080fd5b50610554806100206000396000f3fe60806040526004361061004c576000357c0100000000000000000000000000000000000000000000000000000000900463ffffffff1680631b9265b814610051578063bd0af85d1461005b575b600080fd5b6100596100bf565b005b6100bd6004803603604081101561007157600080fd5b81019080803573ffffffffffffffffffffffffffffffffffffffff169060200190929190803573ffffffffffffffffffffffffffffffffffffffff16906020019092919050505061015d565b005b7fca9e466443ca444b7c8e6e5c3ad804755ab140c851125f2246ccd1fb1fcac39f33604051808273ffffffffffffffffffffffffffffffffffffffff1673ffffffffffffffffffffffffffffffffffffffff16815260200180602001828103825260158152602001807f47656e65736973207761732074726967676572656400000000000000000000008152506020019250505060405180910390a1565b6101678282610400565b7f10258bfd896826cf69e885380049b1d1be0424a813d5117744373ec9f51bc86c33303442604051808573ffffffffffffffffffffffffffffffffffffffff1673ffffffffffffffffffffffffffffffffffffffff1681526020018473ffffffffffffffffffffffffffffffffffffffff1673ffffffffffffffffffffffffffffffffffffffff16815260200183815260200182815260200194505050505060405180910390a1600060033481151561021c57fe5b0490508273ffffffffffffffffffffffffffffffffffffffff166108fc829081150290604051600060405180830381858888f19350505050158015610265573d6000803e3d6000fd5b507f10258bfd896826cf69e885380049b1d1be0424a813d5117744373ec9f51bc86c30848342604051808573ffffffffffffffffffffffffffffffffffffffff1673ffffffffffffffffffffffffffffffffffffffff1681526020018473ffffffffffffffffffffffffffffffffffffffff1673ffffffffffffffffffffffffffffffffffffffff16815260200183815260200182815260200194505050505060405180910390a18173ffffffffffffffffffffffffffffffffffffffff166108fc829081150290604051600060405180830381858888f19350505050158015610353573d6000803e3d6000fd5b507f10258bfd896826cf69e885380049b1d1be0424a813d5117744373ec9f51bc86c30838342604051808573ffffffffffffffffffffffffffffffffffffffff1673ffffffffffffffffffffffffffffffffffffffff1681526020018473ffffffffffffffffffffffffffffffffffffffff1673ffffffffffffffffffffffffffffffffffffffff16815260200183815260200182815260200194505050505060405180910390a1505050565b3073ffffffffffffffffffffffffffffffffffffffff16631b9265b86040518163ffffffff167c0100000000000000000000000000000000000000000000000000000000028152600401600060405180830381600087803b15801561046457600080fd5b505af1158015610478573d6000803e3d6000fd5b505050507fee73d8b38e9ad1beb3d2fe8ca7b0512de7e659508c2592afab7c3836ca48e1e63382600080604051808573ffffffffffffffffffffffffffffffffffffffff1673ffffffffffffffffffffffffffffffffffffffff1681526020018473ffffffffffffffffffffffffffffffffffffffff1673ffffffffffffffffffffffffffffffffffffffff16815260200183815260200182815260200194505050505060405180910390a1505056fea165627a7a7230582075a2247cdea3e4f96bfc008fc2f1aedd1a943489e6141ad481b2e293defea60d0029",
  "source": "pragma solidity ^0.5.0;\n\n// A sample implementation of core ERC1155 function.\nimport './Root.sol';\ncontract PayAll is Root\n{\n    event Payment(address  _from, address _to, uint256 _val, uint256 _when);\n    function pay(address payable one, address payable two) public  payable {\n        super.pay(one, two);\n        emit Payment(msg.sender, address(this), msg.value, now);\n        uint256 val = msg.value/3;\n        one.transfer(val);\n        emit Payment(address(this), one, val, now);\n        two.transfer(val);\n        emit Payment(address(this), two, val, now);\n    }\n}\n",
  "sourcePath": "/home/sushil/work/playcontract/contracts/PayAll.sol",
  "compiler": {
    "name": "solc",
    "version": "0.5.0+commit.1d4f565a.Emscripten.clang"
  },
  "schemaVersion": "3.0.2",
  "updatedAt": "2019-09-02T16:30:28.812Z",
  "devdoc": {
    "methods": {}
  },
  "userdoc": {
    "methods": {}
  }
}